:100AA300120894120903120B5E7F831209728F08D6
:100AB300E508C4540F75F00AA4FFE508540F7C0041
:100AC3002FFBEC35F0FA750D027D097F01120B1631
:020AD30080D7CA
:060B7200C2A58F80D2A78E
:080B78007F027EEFDEFEDFFCD0
:010B80002252
:0A0B8D00C2A6120B72C2A7020B7879
:100AF800CFCDCFCECCCE12083F7C007D0A12083F66
:040B0800ED2430FFA9
:0A0B0C00D2A6120B72C2A7020B78EA
:100B3300AE07BE0104ED148006BE0209ED243F4456
:060B430080FF120B8D2261
:100B5E007F38120B8D7F0C120B8D7F06120B8D7F43
:040B6E0001020B8DE8
:0A0B9700AC03120B33AF04020B0C89
:060AD5008B238A24892511
:100ADB00120B33E4FDAB23AA24A9258D8275830069
:0C0AEB00120800FF6006120B0C0D80E9E1
:010AF70022DC
:0C0A70007F0AEA24FFFDE434FFFC7E0056
:080A7C008E0E8F0F8C108D11FE
:100A84007F017E00E4FBEBC39511E5106480F874EC
:0E0A94008098500AAC0EAD0F12082D0B80E8B2
:010AA2002231
:040B16008A0B8B0CAF
:100B1A00120B33AA0DEAD39400400D120A70AC0BE3
:080B2A00AD0C120AF81A80ED6F
:010B320022A0
:1009C500120B33C3EA64809480400B7F2B120B0C0F
:1009D5008A178B18800E7F2D120B0CC3E49BF5181C
:1009E500E49AF517AA16EAD39400400D120A70ACE2
:0909F50017AD18120AF81A80ED82
:0109FE0022D6
:0409FF008A1B8B1CA8
:100A0300120B33AA1DEAD3940040297F10120A72F5
:100A1300AC1BAD1CCFCDCFCECCCE12083FEF540FC5
:100A2300FEC3940AEE5004243080022437FF120BD5
:040A33000C1A80D148
:010A3700229C
:040A38008A208B2164
:100A3C00120B33AA22EAD394004028EA24FFFDE4E7
:100A4C0034FFFC7F027E00120A7CAC20AD21CFCD9E
:100A5C00CFCECCCE12083FEF54012430FF120B0C3A
:030A6C001A80D21B
:010A6F002264
:100B4900EF1FAC0670011E4C600A7D017CF8DCFECB
:040B5900DDFC80EC53
:010B5D002275
:10089400C2B5C2B4C2B6D2B5C2B4C2B6D2B6D2B46C
:1008A400C2B6D2B6D2B4C2B6D2B6D2B4C2B6D2B638
:1008B400C2B4C2B6D2B6C2B4C2B6D2B6C2B4C2B65A
:1008C400D2B6D2B4C2B6D2B6C2B4C2B6D2B6C2B42A
:1008D400C2B6D2B6C2B4C2B6D2B6C2B4C2B6D2B628
:1008E400C2B4C2B6D2B6C2B4C2B6D2B6C2B4C2B62A
:0F08F400D2B6C2B4C2B6D2B6C2B5C2B4C2B62270
:10090300C2B5C2B4C2B6D2B5C2B4C2B6D2B6D2B4FC
:10091300C2B6D2B6C2B4C2B6D2B6C2B4C2B6D2B6E8
:10092300C2B4C2B6D2B6C2B4C2B6D2B6C2B4C2B6EA
:10093300D2B6D2B4C2B6D2B6C2B4C2B6D2B6C2B4BA
:10094300C2B6D2B6C2B4C2B6D2B6C2B4C2B6D2B6B8
:10095300D2B4C2B6D2B6C2B4C2B6D2B6D2B4C2B69A
:0F096300D2B6C2B4C2B6D2B6C2B5C2B4C2B62200
:02097200A907D3
:10097400E4FDC2B5C2B4C2B6D2B5FB74017E00A810
:1009840003088005C333CE33CED8F9FFE9F582EFEF
:10099400558224FF92B4C2B6D2B60BBB08DDE4FB89
:1009A400D2B6C2B630B40D7401A803088002C333B2
:1009B400D8FC42050BBB08E8C2B5C2B4C2B6AF0549
:0109C4002210
:03000000020B816F
:0C0B8100787FE4F6D8FD758125020AA3F8
:10080000BB010CE58229F582E5833AF583E02250AD
:1008100006E92582F8E622BBFE06E92582F8E222F7
:0D082000E58229F582E5833AF583E4932211
:10082D00EF8DF0A4A8F0CF8CF0A428CE8DF0A42EDF
:02083D00FE2299
:10083F00BC000BBE0029EF8DF084FFADF022E4CC9D
:10084F00F875F008EF2FFFEE33FEEC33FCEE9DEC66
:10085F00984005FCEE9DFE0FD5F0E9E4CEFD22EDAC
:10086F00F8F5F0EE8420D21CFEADF075F008EF2FF6
:10087F00FFED33FD4007985006D5F0F222C398FDE7
:05088F000FD5F0EA2284
:00000001FF
