:100A7000120B61E4F5081208941209037F8312092E
:100A8000728F08E508C4540F75F00AA4FFE50854F6
:100A90000F7C002FFBEC35F0FA750D027D097F010C
:050AA000120B1980CECD
:060B7500C2A58F80D2A78B
:080B7B007F027EEFDEFEDFFCCD
:010B8300224F
:0A0B9000C2A6120B75C2A7020B7B70
:100AFB00CFCDCFCECCCE12083F7C007D0A12083F63
:040B0B00ED2430FFA6
:0A0B0F00D2A6120B75C2A7020B7BE1
:100B3600AE07BE0104ED148006BE0209ED243F4453
:060B460080FF120B90225B
:100B61007F38120B907F0C120B907F06120B907F37
:040B710001020B90E2
:0A0B9A00AC03120B36AF04020B0F80
:060AD8008B238A2489250E
:100ADE00120B36E4FDAB23AA24A9258D8275830063
:0C0AEE00120800FF6006120B0F0D80E9DB
:010AFA0022D9
:0C0AA5007F0AEA24FFFDE434FFFC7E0021
:080AB1008E0E8F0F8C108D11C9
:100AB9007F017E00E4FBEBC39511E5106480F874B7
:0E0AC9008098500AAC0EAD0F12082D0B80E87D
:010AD70022FC
:040B19008A0B8B0CAC
:100B1D00120B36AA0DEAD39400400D120AA5AC0BA8
:080B2D00AD0C120AFB1A80ED69
:010B3500229D
:1009C500120B36C3EA64809480400B7F2B120B0F09
:1009D5008A178B18800E7F2D120B0FC3E49BF51819
:1009E500E49AF517AA16EAD39400400D120AA5ACAD
:0909F50017AD18120AFB1A80ED7F
:0109FE0022D6
:0409FF008A1B8B1CA8
:100A0300120B36AA1DEAD3940040297F10120AA7BD
:100A1300AC1BAD1CCFCDCFCECCCE12083FEF540FC5
:100A2300FEC3940AEE5004243080022437FF120BD5
:040A33000F1A80D145
:010A3700229C
:040A38008A208B2164
:100A3C00120B36AA22EAD394004028EA24FFFDE4E4
:100A4C0034FFFC7F027E00120AB1AC20AD21CFCD69
:100A5C00CFCECCCE12083FEF54012430FF120B0F37
:030A6C001A80D21B
:010A6F002264
:100B4C00EF1FAC0670011E4C600A7D017CF8DCFEC8
:040B5C00DDFC80EC50
:010B60002272
:10089400C2B5C2B4C2B6D2B5C2B4C2B6D2B6D2B46C
:1008A400C2B6D2B6D2B4C2B6D2B6D2B4C2B6D2B638
:1008B400C2B4C2B6D2B6C2B4C2B6D2B6C2B4C2B65A
:1008C400D2B6D2B4C2B6D2B6C2B4C2B6D2B6C2B42A
:1008D400C2B6D2B6C2B4C2B6D2B6C2B4C2B6D2B628
:1008E400C2B4C2B6D2B6C2B4C2B6D2B6C2B4C2B62A
:0F08F400D2B6C2B4C2B6D2B6C2B5C2B4C2B62270
:10090300C2B5C2B4C2B6D2B5C2B4C2B6D2B6D2B4FC
:10091300C2B6D2B6C2B4C2B6D2B6C2B4C2B6D2B6E8
:10092300C2B4C2B6D2B6C2B4C2B6D2B6C2B4C2B6EA
:10093300D2B6D2B4C2B6D2B6C2B4C2B6D2B6C2B4BA
:10094300C2B6D2B6C2B4C2B6D2B6C2B4C2B6D2B6B8
:10095300D2B4C2B6D2B6C2B4C2B6D2B6D2B4C2B69A
:0F096300D2B6C2B4C2B6D2B6C2B5C2B4C2B62200
:02097200A907D3
:10097400E4FDC2B5C2B4C2B6D2B5FB74017E00A810
:1009840003088005C333CE33CED8F9FFE9F582EFEF
:10099400558224FF92B4C2B6D2B60BBB08DDE4FB89
:1009A400D2B6C2B630B40D7401A803088002C333B2
:1009B400D8FC42050BBB08E8C2B5C2B4C2B6AF0549
:0109C4002210
:03000000020B846C
:0C0B8400787FE4F6D8FD758125020A7028
:10080000BB010CE58229F582E5833AF583E02250AD
:1008100006E92582F8E622BBFE06E92582F8E222F7
:0D082000E58229F582E5833AF583E4932211
:10082D00EF8DF0A4A8F0CF8CF0A428CE8DF0A42EDF
:02083D00FE2299
:10083F00BC000BBE0029EF8DF084FFADF022E4CC9D
:10084F00F875F008EF2FFFEE33FEEC33FCEE9DEC66
:10085F00984005FCEE9DFE0FD5F0E9E4CEFD22EDAC
:10086F00F8F5F0EE8420D21CFEADF075F008EF2FF6
:10087F00FFED33FD4007985006D5F0F222C398FDE7
:05088F000FD5F0EA2284
:00000001FF
