:050B95003A20203A00A7
:1008F800120B4B7BFF7A0B79957D037F02120AC29C
:10090800E4FD7F02120A5A7DFF7F02120A5A8F08FD
:10091800EFFB7A00750D027D017F02120B037DFF4C
:100928007F01120A5A8F08EFFB7A00750D027D04C9
:100938007F02120B037DFFE4FF120A5A8F08EFFBB8
:0E0948007A00750D027D077F02120B0380B945
:060B5F00C2A58F80D2A7A1
:080B65007F027EEFDEFEDFFCE3
:010B6D002265
:0A0B7A00C2A6120B5FC2A7020B65B2
:100AE500CFCDCFCECCCE12083F7C007D0A12083F79
:040AF500ED2430FFBD
:0A0AF900D2A6120B5FC2A7020B6524
:100B2000AE07BE0104ED148006BE0209ED243F4469
:060B300080FF120B7A2287
:100B4B007F38120B7A7F0C120B7A7F06120B7A7F8F
:040B5B0001020B7A0E
:0A0B8400AC03120B20AF04020AF9C3
:060AC2008B098A0A890B72
:100AC800120B20E4FDAB09AA0AA90B8D82758300DD
:0C0AD800120800FF6006120AF90D80E908
:010AE40022EF
:0C0A8F007F0AEA24FFFDE434FFFC7E0037
:080A9B008E0E8F0F8C108D11DF
:100AA3007F017E00E4FBEBC39511E5106480F874CD
:0E0AB3008098500AAC0EAD0F12082D0B80E893
:010AC1002212
:040B03008A0B8B0CC2
:100B0700120B20AA0DEAD39400400D120A8FAC0BEA
:080B1700AD0C120AE51A80ED95
:010B1F0022B3
:1009AF00120B20C3EA64809480400B7F2B120AF94C
:1009BF008A178B18800E7F2D120AF9C3E49BF51846
:1009CF00E49AF517AA16EAD39400400D120A8FACD9
:0909DF0017AD18120AE51A80EDAB
:0109E80022EC
:0409E9008A1B8B1CBE
:1009ED00120B20AA1DEAD3940040297F10120A9100
:1009FD00AC1BAD1CCFCDCFCECCCE12083FEF540FDC
:100A0D00FEC3940AEE5004243080022437FF120AEC
:040A1D00F91A80D171
:010A210022B2
:040A22008A208B217A
:100A2600120B20AA22EAD394004028EA24FFFDE410
:100A360034FFFC7F027E00120A9BAC20AD21CFCD95
:100A4600CFCECCCE12083FEF54012430FF120AF964
:030A56001A80D231
:010A5900227A
:100B3600EF1FAC0670011E4C600A7D017CF8DCFEDE
:040B4600DDFC80EC66
:010B4A002288
:070B8E00C2B5C2B4C2B622D9
:02089400AB07B0
:10089600ED75F00A84C454F0FFED75F00A84EF2577
:1008A600F0F9120B8ED2B5E4FD74017E00A805089E
:1008B6008005C333CE33CED8F9FFEBF582EF5582F0
:1008C60024FF92B4C2B6D2B60DBD08DDE4FD7401B4
:1008D6007E00A805088005C333CE33CED8F9FFE9DC
:1008E600FBEF5B24FF92B4C2B6D2B60DBD08DF02A1
:0208F6000B8E67
:02095600A907EF
:10095800E4FD120B8ED2B5FB74017E00A80308805B
:1009680005C333CE33CED8F9FFE9F582EF5582249B
:10097800FF92B4C2B6D2B60BBB08DDE4FBD2B6C256
:10098800B630B40D7401A803088002C333D8FC4202
:10099800050BBB08E8120B8EEDC4540F75F00AA4C2
:0609A800FFED540F2FFFCC
:0109AE002226
:100A5A00BF8E061208947F5822BF8F028024EFD3DC
:100A6A00940640037F4222EDD39463EF500D25E0B4
:100A7A002480F509FF1208947F012225E02481F5DC
:050A8A0009FF020956FE
:03000000020B6E82
:0C0B6E00787FE4F6D8FD7581220208F8BB
:10080000BB010CE58229F582E5833AF583E02250AD
:1008100006E92582F8E622BBFE06E92582F8E222F7
:0D082000E58229F582E5833AF583E4932211
:10082D00EF8DF0A4A8F0CF8CF0A428CE8DF0A42EDF
:02083D00FE2299
:10083F00BC000BBE0029EF8DF084FFADF022E4CC9D
:10084F00F875F008EF2FFFEE33FEEC33FCEE9DEC66
:10085F00984005FCEE9DFE0FD5F0E9E4CEFD22EDAC
:10086F00F8F5F0EE8420D21CFEADF075F008EF2FF6
:10087F00FFED33FD4007985006D5F0F222C398FDE7
:05088F000FD5F0EA2284
:00000001FF
