:1009F000120B257D3A7F82120894120AE27F83123D
:100A000008F88F08E508C4540F75F00AA4FFE5083C
:100A1000540F7C002FFBEC35F0FA750D027D097F39
:060A200001120A9A80D7C2
:060AF600C2A58F80D2A70B
:080AFC007F027EEFDEFEDFFC4D
:010B040022CE
:0A0B1100C2A6120AF6C2A7020AFCEF
:100A7C00CFCDCFCECCCE12083F7C007D0A12083FE2
:040A8C00ED2430FF26
:0A0A9000D2A6120AF6C2A7020AFC61
:100AB700AE07BE0104ED148006BE0209ED243F44D3
:060AC70080FF120B11225A
:100AE2007F38120B117F0C120B117F06120B117F34
:040AF20001020B11E1
:0A0B1B00AC03120AB7AF04020A90FF
:060A59008B238A2489258D
:100A5F00120AB7E4FDAB23AA24A9258D8275830062
:0C0A6F00120800FF6006120A900D80E9DA
:010A7B002258
:0C0A26007F0AEA24FFFDE434FFFC7E00A0
:080A32008E0E8F0F8C108D1148
:100A3A007F017E00E4FBEBC39511E5106480F87436
:0E0A4A008098500AAC0EAD0F12082D0B80E8FC
:010A5800227B
:040A9A008A0B8B0C2C
:100A9E00120AB7AA0DEAD39400400D120A26AC0B27
:080AAE00AD0C120A7C1A80ED68
:010AB600221D
:10094500120AB7C3EA64809480400B7F2B120A9089
:100955008A178B18800E7F2D120A90C3E49BF51819
:10096500E49AF517AA16EAD39400400D120A26ACAC
:0909750017AD18120A7C1A80ED7E
:01097E002256
:04097F008A1B8B1C28
:10098300120AB7AA1DEAD3940040297F10120A283D
:10099300AC1BAD1CCFCDCFCECCCE12083FEF540F46
:1009A300FEC3940AEE5004243080022437FF120A57
:0409B300901A80D145
:0109B700221D
:0409B8008A208B21E5
:1009BC00120AB7AA22EAD394004028EA24FFFDE4E5
:1009CC0034FFFC7F027E00120A32AC20AD21CFCD69
:1009DC00CFCECCCE12083FEF54012430FF120A9038
:0309EC001A80D29C
:0109EF0022E5
:100ACD00EF1FAC0670011E4C600A7D017CF8DCFE48
:040ADD00DDFC80ECD0
:010AE10022F2
:070B2500C2B5C2B4C2B62242
:02089400AB07B0
:10089600ED75F00A84C454F0FFED75F00A84EF2577
:1008A600F0F9120B25D2B5E4FD74017E00A8050807
:1008B6008005C333CE33CED8F9FFEBF582EF5582F0
:1008C60024FF92B4C2B6D2B60DBD08DDE4FD7401B4
:1008D6007E00A805088005C333CE33CED8F9FFE9DC
:1008E600FBEF5B24FF92B4C2B6D2B60DBD08DF02A1
:0208F6000B25D0
:0208F800A9074E
:1008FA00E4FD120B25D2B5FB74017E00A803088023
:10090A0005C333CE33CED8F9FFE9F582EF558224F9
:10091A00FF92B4C2B6D2B60BBB08DDE4FBD2B6C2B4
:10092A00B630B40D7401A803088002C333D8FC4260
:0A093A00050BBB08E8120B25AF0502
:010944002290
:03000000020B05EB
:0C0B0500787FE4F6D8FD7581250209F028
:10080000BB010CE58229F582E5833AF583E02250AD
:1008100006E92582F8E622BBFE06E92582F8E222F7
:0D082000E58229F582E5833AF583E4932211
:10082D00EF8DF0A4A8F0CF8CF0A428CE8DF0A42EDF
:02083D00FE2299
:10083F00BC000BBE0029EF8DF084FFADF022E4CC9D
:10084F00F875F008EF2FFFEE33FEEC33FCEE9DEC66
:10085F00984005FCEE9DFE0FD5F0E9E4CEFD22EDAC
:10086F00F8F5F0EE8420D21CFEADF075F008EF2FF6
:10087F00FFED33FD4007985006D5F0F222C398FDE7
:05088F000FD5F0EA2284
:00000001FF
