:070B800053706565643A0043
:10089400120B33120AC57BFF7A0B79807D017F012D
:1008A400120A67750C01E4FBFA7D077F01120AA89E
:1008B400120B768F1CE51C60F7B4010FE4F51B7571
:1008C4000C01FBFA7D077F01120AA8E51CB4021192
:1008D400751B14750C017B017A007D077F01120AD8
:1008E400A8E51CB40311751B32750C017B027A0058
:1008F4007D077F01120AA8E51CB404B4751B647556
:0F0904000C017B037A007D077F01120AA880A1F6
:03000B00020913D4
:10091300C0E0C0F0C083C082C0D075D000C000C0AA
:0D09230001C002C003C004C005C006C0072B
:10093000758A9C758CFFE51A2401FFE433FE7C0068
:100940007D6412083F8D1A0519E51970020518C358
:1009500094C8E51894004009751800751900120B29
:0E09600008E51AC3951B4004C2908002D29095
:10096E00D007D006D005D004D003D002D001D000DD
:0B097E00D0D0D082D083D0F0D0E03287
:100B1E00EF1FAC0670011E4C600A7D017CF8DCFEF6
:040B2E00DDFC80EC7E
:010B320022A0
:060B4700C2A58F80D2A7B9
:080B4D007F027EEFDEFEDFFCFB
:010B5500227D
:0A0B6200C2A6120B47C2A7020B4DFA
:100A8A00CFCDCFCECCCE12083F7C007D0A12083FD4
:040A9A00ED2430FF18
:0A0A9E00D2A6120B47C2A7020B4DAF
:100ADC00AE07BE0104ED148006BE0209ED243F44AE
:060AEC0080FF120B6222E4
:100B33007F38120B627F0C120B627F06120B627FEF
:040B430001020B623E
:0A0B6C00AC03120ADCAF04020A9E7B
:060A67008B088A09890AD0
:100A6D00120ADCE4FDAB08AA09A90A8D8275830080
:0C0A7D00120800FF6006120A9E0D80E9BE
:010A8900224A
:0C0A34007F0AEA24FFFDE434FFFC7E0092
:080A40008E0D8F0E8C0F8D103E
:100A48007F017E00E4FBEBC39510E50F6480F8742A
:0E0A58008098500AAC0DAD0E12082D0B80E8F0
:010A6600226D
:040AA8008A0A8B0B20
:100AAC00120ADCAA0CEAD39400400D120A34AC0AE8
:080ABC00AD0B120A8A1A80ED4D
:010AC400220F
:10098900120ADCC3EA64809480400B7F2B120A9E12
:100999008A168B17800E7F2D120A9EC3E49BF517CA
:1009A900E49AF516AA15EAD39400400D120A34AC5C
:0909B90016AD17120A8A1A80ED2E
:0109C2002212
:0409C3008A1F8B20DC
:1009C700120ADCAA21EAD3940040297F10120A36C2
:1009D700AC1FAD20CFCDCFCECCCE12083FEF540FFA
:1009E700FEC3940AEE5004243080022437FF120A13
:0409F7009E1A80D1F3
:0109FB0022D9
:0409FC008A248B2599
:100A0000120ADCAA26EAD394004028EA24FFFDE477
:100A100034FFFC7F027E00120A40AC24AD25CFCD0E
:100A2000CFCECCCE12083FEF54012430FF120A9EE5
:030A30001A80D257
:010A330022A0
:100AF200E4FF20B1010F20B0027F0220B2027F0387
:050B020020B3027F0496
:010B070022CB
:100B0800852827120AF28F28E52765286007E52837
:050B1800700385272990
:010B1D0022B5
:090B7600E5296005FFE4F52922E0
:010B7F002253
:100AC5005389F0438901758A18758CFCC28DD28CC7
:070AD500D2A9D2AFC2B92281
:03000000020B569A
:0C0B5600787FE4F6D8FD75812902089430
:10080000BB010CE58229F582E5833AF583E02250AD
:1008100006E92582F8E622BBFE06E92582F8E222F7
:0D082000E58229F582E5833AF583E4932211
:10082D00EF8DF0A4A8F0CF8CF0A428CE8DF0A42EDF
:02083D00FE2299
:10083F00BC000BBE0029EF8DF084FFADF022E4CC9D
:10084F00F875F008EF2FFFEE33FEEC33FCEE9DEC66
:10085F00984005FCEE9DFE0FD5F0E9E4CEFD22EDAC
:10086F00F8F5F0EE8420D21CFEADF075F008EF2FF6
:10087F00FFED33FD4007985006D5F0F222C398FDE7
:05088F000FD5F0EA2284
:00000001FF
