:0A019800C0F9A4B0999282F880909B
:10000E00750B00750C2AE4F50D1201281201808F74
:10001E000DE50D6024B4030EE50C450B6008050CD0
:10002E00E50C7002050BE50DB4040EE50C450B60F6
:10003E0008E50C150C7002150BAE0BAF0C7C007D99
:10004E000A1200D374982FF58274013EF583E4935F
:10005E00F580AE0BAF0C7C007D0A1200D374982D88
:0D006E00F58274013CF583E493F590809FCA
:03000B0002007B75
:10007B00C0E0C0F0C083C082C0D075D000C000C04B
:0D008B0001C002C003C004C005C006C007CC
:10009800758A18758CFC050FE50F7002050EC39460
:1000A80014E50E94004009750E00750F00120155F5
:1000B800D007D006D005D004D003D002D001D0009C
:0B00C800D0D0D082D083D0F0D0E03246
:100128005389F0438901758A18758CFCC28DD28C6D
:07013800D2A9D2AFC2B92227
:10016B00EF1FAC0670011E4C600A7D017CF8DCFEB3
:04017B00DDFC80EC3B
:01017F00225D
:10013F00E4FF20B1010F20B0027F0220B2027F0343
:05014F0020B3027F0453
:010154002288
:1001550085090812013F8F09E50865096007E5096A
:05016500700385080A8B
:01016A002272
:0B018000E4FFE50A6005FFE4F50A2239
:01018B002251
:0300000002018C6E
:0C018C00787FE4F6D8FD75810F02000EAC
:1000D300BC000BBE0029EF8DF084FFADF022E4CC11
:1000E300F875F008EF2FFFEE33FEEC33FCEE9DECDA
:1000F300984005FCEE9DFE0FD5F0E9E4CEFD22ED20
:10010300F8F5F0EE8420D21CFEADF075F008EF2F69
:10011300FFED33FD4007985006D5F0F222C398FD5A
:050123000FD5F0EA22F7
:00000001FF
