:100B0F0054696D652D63202020202020205E5F5EBC
:0B0B1F000020203A20203A20202E0069
:060B9F00011B13011C15EF
:03000B0002097E69
:04097E00C0E0C0D045
:10098200758A18758CFC0519E51970020518C3944F
:100992005BE51894004035051AE51A940A400505EE
:1009A2001D751A00E51DC3943C4005051C751D000C
:1009B200E51CC3943C4005051B751C00E51BC39454
:0C09C200184003751B0075180075190023
:0509CE00D0D0D0E032A2
:10092000120B2A120B577BFF7A0B790F7D017F0187
:10093000120AB17BFF7A0B79207D017F02120AB186
:10094000E51BFB7A00750C027D017F02120AF2E5BD
:100950001CFB7A00750C027D047F02120AF2E51D71
:10096000FB7A00750C027D077F02120AF2E51AFB82
:0E0970007A00750C017D0A7F02120AF280C225
:100B2A005389F0438901758A18758CFCC28DD28C61
:070B3A00D2A9D2AFC2B9221B
:100B6B00AE071FEE600A7E017DF8DDFEDEFC80F035
:010B7B002257
:060B7C00C2A58F80D2A784
:080B82007F027EEFDEFEDFFCC6
:010B8A002248
:0A0B8B00C2A6120B7CC2A7020B8267
:100AD400CFCDCFCECCCE12083F7C007D0A12083F8A
:040AE400ED2430FFCE
:0A0AE800D2A6120B7CC2A7020B82FB
:100B4100AE07BE0104ED148006BE0209ED243F4448
:060B510080FF120B8B2255
:100B57007F38120B8B7F0C120B8B7F06120B8B7F50
:040B670001020B8BF1
:0A0B9500AC03120B41AF04020AE8A2
:060AB1008B088A09890A86
:100AB700120B41E4FDAB08AA09A90A8D82758300D0
:0C0AC700120800FF6006120AE80D80E92A
:010AD3002200
:0C0A7E007F0AEA24FFFDE434FFFC7E0048
:080A8A008E0D8F0E8C0F8D10F4
:100A92007F017E00E4FBEBC39510E50F6480F874E0
:0E0AA2008098500AAC0DAD0E12082D0B80E8A6
:010AB0002223
:040AF2008A0A8B0BD6
:100AF600120B41AA0CEAD39400400D120A7EAC0AEE
:080B0600AD0B120AD41A80EDB8
:010B0E0022C4
:1009D300120B41C3EA64809480400B7F2B120AE818
:1009E3008A168B17800E7F2D120AE8C3E49BF51736
:1009F300E49AF516AA15EAD39400400D120A7EACC8
:090A030016AD17120AD41A80ED99
:010A0C0022C7
:040A0D008A208B218F
:100A1100120B41AA22EAD3940040297F10120A80C6
:100A2100AC20AD21CFCDCFCECCCE12083FEF540FAD
:100A3100FEC3940AEE5004243080022437FF120AC8
:040A4100E81A80D15E
:010A4500228E
:040A46008A258B264C
:100A4A00120B41AA27EAD394004028EA24FFFDE4C6
:100A5A0034FFFC7F027E00120A8AAC25AD26CFCD78
:100A6A00CFCECCCE12083FEF54012430FF120AE851
:030A7A001A80D20D
:010A7D002256
:030000000208945F
:0C089400787FE4F6D8FD7581270208DBB0
:10080000BB010CE58229F582E5833AF583E02250AD
:1008100006E92582F8E622BBFE06E92582F8E222F7
:0D082000E58229F582E5833AF583E4932211
:10082D00EF8DF0A4A8F0CF8CF0A428CE8DF0A42EDF
:02083D00FE2299
:10083F00BC000BBE0029EF8DF084FFADF022E4CC9D
:10084F00F875F008EF2FFFEE33FEEC33FCEE9DEC66
:10085F00984005FCEE9DFE0FD5F0E9E4CEFD22EDAC
:10086F00F8F5F0EE8420D21CFEADF075F008EF2FF6
:10087F00FFED33FD4007985006D5F0F222C398FDE7
:05088F000FD5F0EA2284
:1008A000020920E493A3F8E493A34003F68001F245
:1008B00008DFF48029E493A3F85407240CC8C33359
:1008C000C4540F4420C8834004F456800146F6DF28
:1008D000E4800B0102040810204080900B9FE47E0E
:1008E000019360BCA3FF543F30E509541FFEE4931D
:1008F000A360010ECF54C025E060A840B8E493A3E4
:10090000FAE493A3F8E493A3C8C582C8CAC583CA0E
:10091000F0A3C8C582C8CAC583CADFE9DEE780BEC6
:010BA500004F
:00000001FF
