:10097D000000193E7C540300000001021C1C7B5832
:10098D000000193E7C5403000000237CF8B60100E2
:10099D00000001022478FFB00000237CF8B60100AE
:1009FC007BFF7A09797D750D327D307C0012090EF2
:020A0C0080EE7A
:100A0E00AE071FEE600A7E017DF8DDFEDEFC80F093
:010A1E0022B5
:060A1F00011000011100AE
:0209AD00AD0794
:1009AF00E4FB74807E00A803088006CEA2E713CE76
:1009BF0013D8F8FFEDF582EF558224FF92B4C2B63B
:0A09CF00D2B60BBB08DCC2B5D2B5EE
:0109D90022FB
:1009DA00AE05AC07AF061209ADAF047480A80708CC
:1009EA008002C313D8FCF4F5807F01120A0E7580C9
:0209FA00FF22DA
:0A090E008B088A09890A8C0B8D0CF6
:10091800E50DC394324005750F08800BE50D700492
:10092800F50F8003750F01E4F50EE510250EFFE4C1
:1009380033FEAC0BAD0C1208B9AB08AA09A90A8D95
:10094800828C8312088CFDAF0E1209DA050EE50EB3
:10095800C3940840D50511E511C3950D4016E50F60
:100968002510F510E4F511C3E510950CE4950B403E
:0409780003E4F5108F
:01097C002258
:03000000020800F3
:0C080000787FE4F6D8FD758111020847EE
:10088C00BB010CE58229F582E5833AF583E0225021
:10089C0006E92582F8E622BBFE06E92582F8E2226B
:0D08AC00E58229F582E5833AF583E4932285
:1008B900BC000BBE0029EF8DF084FFADF022E4CC23
:1008C900F875F008EF2FFFEE33FEEC33FCEE9DECEC
:1008D900984005FCEE9DFE0FD5F0E9E4CEFD22ED32
:1008E900F8F5F0EE8420D21CFEADF075F008EF2F7C
:1008F900FFED33FD4007985006D5F0F222C398FD6D
:050909000FD5F0EA2209
:10080C000209FCE493A3F8E493A34003F68001F2FD
:10081C0008DFF48029E493A3F85407240CC8C333ED
:10082C00C4540F4420C8834004F456800146F6DFBC
:10083C00E4800B0102040810204080900A1FE47E23
:10084C00019360BCA3FF543F30E509541FFEE493B1
:10085C00A360010ECF54C025E060A840B8E493A378
:10086C00FAE493A3F8E493A3C8C582C8CAC583CAA3
:10087C00F0A3C8C582C8CAC583CADFE9DEE780BE5B
:010A250000D0
:00000001FF
