:0308CB0001080021
:0508C60012088C80FE09
:030023000208C010
:0608C000309802C29832DC
:1008A700AE071FEE600A7E017DF8DDFEDEFC80F0FC
:0108B700221E
:10088C0053877F75985053890F438920758BFA7560
:0B089C008DFAC2ABD28ED2AFD2AC22DC
:0808B8008F993099FDC29922CD
:03000000020800F3
:0C080000787FE4F6D8FD758108020847F7
:10080C000208C6E493A3F8E493A34003F68001F234
:10081C0008DFF48029E493A3F85407240CC8C333ED
:10082C00C4540F4420C8834004F456800146F6DFBC
:10083C00E4800B01020408102040809008CBE47E79
:10084C00019360BCA3FF543F30E509541FFEE493B1
:10085C00A360010ECF54C025E060A840B8E493A378
:10086C00FAE493A3F8E493A3C8C582C8CAC583CAA3
:10087C00F0A3C8C582C8CAC583CADFE9DEE780BE5B
:0108CE000029
:00000001FF
