:070AF60056616C75653A00C2
:1009FA00120AB37BFF7A0A79F67D017F01120A2A6D
:100A0A007F011208948E228F23750C06AB23AA222B
:100A1A007D017F02120A6B7F0A7E00120A9E80E025
:100A9E00EF1FAC0670011E4C600A7D017CF8DCFE77
:040AAE00DDFC80ECFF
:010AB2002221
:060AC700C2A58F80D2A73A
:080ACD007F027EEFDEFEDFFC7C
:010AD50022FE
:0A0AE200C2A6120AC7C2A7020ACD7D
:100A4D00CFCDCFCECCCE12083F7C007D0A12083F11
:040A5D00ED2430FF55
:0A0A6100D2A6120AC7C2A7020ACDEE
:100A8800AE07BE0104ED148006BE0209ED243F4402
:060A980080FF120AE222B9
:100AB3007F38120AE27F0C120AE27F06120AE27FF3
:040AC30001020AE240
:0A0AEC00AC03120A88AF04020A618D
:060A2A008B088A09890A0D
:100A3000120A88E4FDAB08AA09A90A8D8275830011
:0C0A4000120800FF6006120A610D80E938
:010A4C002287
:0C09C7007F0AEA24FFFDE434FFFC7E0000
:0809D3008E0D8F0E8C0F8D10AC
:1009DB007F017E00E4FBEBC39510E50F6480F87498
:0E09EB008098500AAC0DAD0E12082D0B80E85E
:0109F90022DB
:040A6B008A0A8B0B5D
:100A6F00120A88AA0CEAD39400400D1209C7AC0AE7
:080A7F00AD0B120A4D1A80EDC7
:010A8700224C
:10091C00120A88C3EA64809480400B7F2B120A6110
:10092C008A168B17800E7F2D120A61C3E49BF51774
:10093C00E49AF516AA15EAD39400400D1209C7AC37
:09094C0016AD17120A4D1A80EDD8
:01095500227F
:040956008A1A8B1B53
:10095A00120A88AA1CEAD3940040297F101209C9F6
:10096A00AC1AAD1BCFCDCFCECCCE12083FEF540F71
:10097A00FEC3940AEE5004243080022437FF120A80
:04098A00611A80D19D
:01098E002246
:04098F008A1F8B2010
:10099300120A88AA21EAD394004028EA24FFFDE43E
:1009A30034FFFC7F027E001209D3AC1FAD20CFCDF4
:1009B300CFCECCCE12083FEF54012430FF120A6190
:0309C3001A80D2C5
:0109C600220E
:10089400E4FBFAEF24FE600E14600F1460102403CE
:1008A40070107D9480117DD4800D7DA480097DE439
:1008B40080057E007F0122C2B6C2B5E4FC74807E4E
:1008C40000A804088006CEA2E713CE13D8F8FFEDE3
:1008D400F582EF55826003D38001C392B4D2B6008F
:1008E400C2B6000CBC08D67C06DCFED2B600000002
:1008F400C2B6000000E4FAFBFCEB25E0FBEA33FAA5
:10090400D2B6C2B630B7034303010CBC0CEBD2B56C
:07091400E42BFFEA3404FEAE
:01091B0022B9
:03000000020AD61B
:0C0AD600787FE4F6D8FD7581230209FA50
:10080000BB010CE58229F582E5833AF583E02250AD
:1008100006E92582F8E622BBFE06E92582F8E222F7
:0D082000E58229F582E5833AF583E4932211
:10082D00EF8DF0A4A8F0CF8CF0A428CE8DF0A42EDF
:02083D00FE2299
:10083F00BC000BBE0029EF8DF084FFADF022E4CC9D
:10084F00F875F008EF2FFFEE33FEEC33FCEE9DEC66
:10085F00984005FCEE9DFE0FD5F0E9E4CEFD22EDAC
:10086F00F8F5F0EE8420D21CFEADF075F008EF2FF6
:10087F00FFED33FD4007985006D5F0F222C398FDE7
:05088F000FD5F0EA2284
:00000001FF
