:0B0B6500120B32120B84120B4680FEB4
:100B1D00EF1FAC0670011E4C600A7D017CF8DCFEF7
:040B2D00DDFC80EC7F
:010B310022A1
:030B950001080054
:090B8400D288D2A8D2AFD2B2226D
:100B460053890F438910E4F58DF58BC28FC28E222F
:080B8D00E4F58DF58BD28E22F8
:10097600E4F514F515C28EAF8DF5148F15E51575D2
:100986001500F514AF8DEFFB7A00751A037D047F11
:1009960002120AD3AF8BEFFB7A00751A037D077F2D
:0D09A60002120AD3AF8BE514FEE5154FFFDA
:0109B3002221
:03000300020920CF
:10092000C0E0C0F0C083C082C0D075D000C000C09D
:1009300001C002C003C004C005C006C007120B8D71
:10094000E50860151209768E098F0A751A07AB0A39
:10095000AA097D017F02120AD30508D007D006D06C
:1009600005D004D003D002D001D000D0D0D082D0A6
:0609700083D0F0D0E0325C
:060B5600C2A58F80D2A7AA
:080B5C007F027EEFDEFEDFFCEC
:010B6400226E
:0A0B7000C2A6120B56C2A7020B5CCE
:100AB500CFCDCFCECCCE12083F7C007D0A12083FA9
:040AC500ED2430FFED
:0A0AC900D2A6120B56C2A7020B5C66
:100B0700AE07BE0104ED148006BE0209ED243F4482
:060B170080FF120B7022AA
:100B32007F38120B707F0C120B707F06120B707FC6
:040B420001020B7031
:0A0B7A00AC03120B07AF04020AC916
:060A92008B308A3189322D
:100A9800120B07E4FDAB30AA31A9328D82758300B1
:0C0AA800120800FF6006120AC90D80E968
:010AB400221F
:0C0A5F007F0AEA24FFFDE434FFFC7E0067
:080A6B008E1B8F1C8C1D8D1EDB
:100A73007F017E00E4FBEBC3951EE51D6480F874E3
:0E0A83008098500AAC1BAD1C12082D0B80E8A9
:010A91002242
:040AD3008A188B19D9
:100AD700120B07AA1AEAD39400400D120A5FAC184A
:080AE700AD19120AB51A80EDE9
:010AEF0022E4
:1009B400120B07C3EA64809480400B7F2B120AC990
:1009C4008A248B25800E7F2D120AC9C3E49BF5254A
:1009D400E49AF524AA23EAD39400400D120A5FACEA
:0909E40024AD25120AB51A80EDBC
:0109ED0022E7
:0409EE008A288B299F
:1009F200120B07AA2AEAD3940040297F10120A6137
:100A0200AC28AD29CFCDCFCECCCE12083FEF540FBC
:100A1200FEC3940AEE5004243080022437FF120AE7
:040A2200C91A80D19C
:010A260022AD
:040A27008A2D8B2E5B
:100A2B00120B07AA2FEAD394004028EA24FFFDE417
:100A3B0034FFFC7F027E00120A6BAC2DAD2ECFCDA6
:100A4B00CFCECCCE12083FEF54012430FF120AC98F
:030A5B001A80D22C
:010A5E002275
:100AF0005389F0438901758A18758CFCC28DD28C9C
:070B0000D2A9D2AFC2B92255
:030000000208945F
:0C089400787FE4F6D8FD7581340208DBA3
:10080000BB010CE58229F582E5833AF583E02250AD
:1008100006E92582F8E622BBFE06E92582F8E222F7
:0D082000E58229F582E5833AF583E4932211
:10082D00EF8DF0A4A8F0CF8CF0A428CE8DF0A42EDF
:02083D00FE2299
:10083F00BC000BBE0029EF8DF084FFADF022E4CC9D
:10084F00F875F008EF2FFFEE33FEEC33FCEE9DEC66
:10085F00984005FCEE9DFE0FD5F0E9E4CEFD22EDAC
:10086F00F8F5F0EE8420D21CFEADF075F008EF2FF6
:10087F00FFED33FD4007985006D5F0F222C398FDE7
:05088F000FD5F0EA2284
:1008A000020B65E493A3F8E493A34003F68001F2FE
:1008B00008DFF48029E493A3F85407240CC8C33359
:1008C000C4540F4420C8834004F456800146F6DF28
:1008D000E4800B0102040810204080900B95E47E18
:1008E000019360BCA3FF543F30E509541FFEE4931D
:1008F000A360010ECF54C025E060A840B8E493A3E4
:10090000FAE493A3F8E493A3C8C582C8CAC583CA0E
:10091000F0A3C8C582C8CAC583CADFE9DEE780BEC6
:010B9800005C
:00000001FF
