:100800000004000400041602180219061802190454
:100810001D04180C11021102160614021604190404
:10082000140C110412081102120419041108000218
:1008300019021902190218061302130418041808E1
:100840000004160218021906180219041D04180CD7
:10085000110211021606140216041904140C0F02D8
:10086000110212041902180419041B021B021D02B2
:100870001908190218021602160218041404160C9C
:1008800019021B021D061B021D0420041B0C14026E
:1008900014021906180219041D041D10160218026C
:1008A000190418041B021B021906140A1E041D0455
:1008B0001B0419041D0C1D042208200420041D0221
:1008C0001B021908000219021B0419021B021B0457
:1008D00020041D0C1D04220820081D021B021908FB
:1008E000000219021B0419021B061804160C16023A
:0308F0001802FFEC
:10097F0002530000204A090000F88BF8F2F95AF9E7
:10098F00B7FA14FA66FAB8FB03FB4AFB8FFBCEFCEF
:10099F000BFC43FC78FCABFCDBFD08FD33FD5BFD82
:1009AF0081FDA5FDC7FDE7FE05FE21FE3CFE55FEC0
:1009BF006DFE84FE99FEADFEC0FED2FEE3FEF3FF98
:0409CF000201080019
:1009D400120A33E50890080093FFF4602BEF25E03A
:1009E4002409F8E6F55308E6F5540508E508937577
:1009F400F0FAA4FFAEF0120A4A0508C28C7F077E03
:100A040000120A4AD28C80CBE4F508C28C7F07FE20
:070A1400120A4AD28C80BCDB
:03000B00020A1BCB
:100A1B00C0E0E553F58C85548AE55445536004B228
:080A2B00A58002C2A5D0E03253
:100A4A00EF1FAC0670011E4C600A7D017CF8DCFECB
:040A5A00DDFC80EC53
:010A5E002275
:100A33005389F0438901758A18758CFCC28DD28C59
:070A4300D2A9D2AFC2B92213
:030000000208F300
:0C08F300787FE4F6D8FD75815402093AC4
:1008FF000209D4E493A3F8E493A34003F68001F232
:10090F0008DFF48029E493A3F85407240CC8C333F9
:10091F00C4540F4420C8834004F456800146F6DFC8
:10092F00E4800B010204081020408090097FE47ED0
:10093F00019360BCA3FF543F30E509541FFEE493BD
:10094F00A360010ECF54C025E060A840B8E493A384
:10095F00FAE493A3F8E493A3C8C582C8CAC583CAAF
:10096F00F0A3C8C582C8CAC583CADFE9DEE780BE67
:0109D3000023
:00000001FF
