:100928000D040D0414041404160416041408120407
:0D0938001204110411040F040F040D08FF38
:10088C0002530000204A090000F88BF8F2F95AF9DB
:10089C00B7FA14FA66FAB8FB03FB4AFB8FFBCEFCE3
:1008AC000BFC43FC78FCABFCDBFD08FD33FD5BFD76
:1008BC0081FDA5FDC7FDE7FE05FE21FE3CFE55FEB4
:1008CC006DFE84FE99FEADFEC0FED2FEE3FEF3FF8C
:0408DC00020108000D
:1008E10012095DE50890092893FFF4602BEF25E0DC
:1008F1002409F8E6F55308E6F5540508E50893756B
:10090100F0FAA4FFAEF01209740508C28C7F077ECD
:1009110000120974D28C80CBE4F508C28C7F07FEEB
:07092100120974D28C80BCA6
:03000B00020945A2
:10094500C0E0E553F58C85548AE55445536004B2FF
:08095500A58002C2A5D0E0322A
:10097400EF1FAC0670011E4C600A7D017CF8DCFEA2
:04098400DDFC80EC2A
:01098800224C
:10095D005389F0438901758A18758CFCC28DD28C30
:07096D00D2A9D2AFC2B922EA
:03000000020800F3
:0C080000787FE4F6D8FD758154020847AB
:10080C000208E1E493A3F8E493A34003F68001F219
:10081C0008DFF48029E493A3F85407240CC8C333ED
:10082C00C4540F4420C8834004F456800146F6DFBC
:10083C00E4800B010204081020408090088CE47EB8
:10084C00019360BCA3FF543F30E509541FFEE493B1
:10085C00A360010ECF54C025E060A840B8E493A378
:10086C00FAE493A3F8E493A3C8C582C8CAC583CAA3
:10087C00F0A3C8C582C8CAC583CADFE9DEE780BE5B
:0108E0000017
:00000001FF
