:100800000000F88BF8F2F95BF9B7FA14FA66FAB956
:10081000FB03FB4AFB8FFBCFFC0BFC43FC78FCABE0
:10082000FCDBFD08FD33FD5BFD81FDA5FDC7FDE79C
:10083000FE05FE21FE3CFE55FE6DFE84FE99FEADDA
:10084000FEC0FE02FEE3FEF3FF02FF10FF1DFF2AC3
:10085000FF36FF42FF4CFF56FF60FF69FF71FF79D3
:10086000FF8100041A021702150217021302150273
:10087000120213020E02000409060702090607020B
:1008800009040B040E040B040906070209060702FB
:1008900009020B020902070201040004090607020B
:1008A0000906070209040B040E040B0409060B02D7
:1008B00009040704090800080906070209060702D7
:1008C00009040B040E040B0409060B0209040704B7
:1008D000030400040B0209020702090207040004D2
:1008E0000B02090207020902070400040B020902B5
:1008F00007020902070800080004070409040B04A2
:10090000070410040E02100600020702120410026F
:10091000120600041204100212060B041302150240
:100920001302120210040E0410040E0210040E0230
:1009300010020E0210040E0209040E040B08000837
:10094000070409040B04070410040E021006000239
:10095000070212041002120600041204100212060A
:100960000B04130215021302120210040E041004E9
:10097000170217060E041004170217040E041002C3
:10098000100C00041304150417041C021A061C02A0
:100990001A061C021A06150417061C021A061C0267
:1009A0001A061C021A041708150413021004130473
:1009B0001302150413021004130417081704150674
:1009C00000041304150417041C021A061C021A065C
:1009D0001C021A060002150217041C021A061C0249
:1009E0001A061C021A06170615041302100417042F
:1009F000150413021004100213021308000410025D
:100A0000170615041302100417041504130210042A
:080A1000100213061308FFFF9A
:100AC700EFD39400400B7EB97DB9DDFEDEFA1F80BF
:010AD700EF2F
:010AD80022FB
:080AE5007F967E96DEFEDFFA2B
:010AED0022E6
:03000B00020A9254
:100A9200C0E0C083C082C0D0B2A5E50825E0240032
:100AA200F582E43408F583E493F58CE50825E02427
:100AB20001F582E43408F583E493F58AD0D0D0823C
:050AC200D083D0E032FA
:100A1800E4FC758901D2AFD2A975F002ECA4246276
:100A2800F582E5F03408F583E493F50875F002ECF7
:100A3800A42463F582E5F03408F583E493F509E529
:100A480008700AC28CAF09120AC70C80CCE508B43A
:100A5800FF0BC28C7F1E120AC7E4FC80BC75F00233
:100A6800ECA42464F582E5F03408F583E493B50832
:100A78000FD28CAF09120AC7C28C120AE50C8099F2
:0A0A8800D28CAF09120AC70C808F50
:03000000020AD918
:0C0AD900787FE4F6D8FD758109020A1848
:00000001FF
