:0D0B940043656C736975733A002E004300D1
:100A3F00EF54F0FEEF540FFF540225E0FDEF540189
:100A4F0033333354F84DFDEF5404C3134DFDEF54BE
:090A5F0008131313541F4D4EFF40
:010A6800226B
:10089400120B5D120BA1120A8C8E268F27E526C43B
:1008A400F854F0C8E527C4540F48F528E527C45484
:1008B400F0C4540FFF120A3F8F297BFF7A0B7994FF
:1008C4007D017F01120A69E528FB7A00750C027D1F
:1008D400017F02120ACC7BFF7A0B799D7D037F0294
:1008E400120A69E529FB7A00750C027D047F021265
:1008F4000ACC7BFF7A0B799F7D067F02120A6980FE
:010904009260
:100B4800EF1FAC0670011E4C600A7D017CF8DCFECC
:040B5800DDFC80EC54
:010B5C002276
:060B8500C2A58F80D2A77B
:080B8B007F027EEFDEFEDFFCBD
:010B9300223F
:0A0BBA00C2A6120B85C2A7020B8B26
:100AAE00CFCDCFCECCCE12083F7C007D0A12083FB0
:040ABE00ED2430FFF4
:0A0AC200D2A6120B85C2A7020B8B0F
:100B3200AE07BE0104ED148006BE0209ED243F4457
:060B420080FF120BBA2235
:100B5D007F38120BBA7F0C120BBA7F06120BBA7FBD
:040B6D0001020BBABC
:0A0BC400AC03120B32AF04020AC2A8
:060A69008B088A09890ACE
:100A6F00120B32E4FDAB08AA09A90A8D8275830027
:0C0A7F00120800FF6006120AC20D80E998
:010A8B002248
:0C09B0007F0AEA24FFFDE434FFFC7E0017
:0809BC008E0D8F0E8C0F8D10C3
:1009C4007F017E00E4FBEBC39510E50F6480F874AF
:0E09D4008098500AAC0DAD0E12082D0B80E875
:0109E20022F2
:040ACC008A0A8B0BFC
:100AD000120B32AA0CEAD39400400D1209B0AC0AF2
:080AE000AD0B120AAE1A80ED05
:010AE80022EB
:10090500120B32C3EA64809480400B7F2B120AC21B
:100915008A168B17800E7F2D120AC2C3E49BF5172A
:10092500E49AF516AA15EAD39400400D1209B0AC65
:0909350016AD17120AAE1A80ED8E
:01093E002296
:04093F008A1A8B1B6A
:10094300120B32AA1CEAD3940040297F101209B279
:10095300AC1AAD1BCFCDCFCECCCE12083FEF540F88
:10096300FEC3940AEE5004243080022437FF120A97
:04097300C21A80D153
:01097700225D
:040978008A238B241F
:10097C00120B32AA25EAD394004028EA24FFFDE4A6
:10098C0034FFFC7F027E001209BCAC23AD24CFCD1A
:10099C00CFCECCCE12083FEF54012430FF120AC246
:0309AC001A80D2DC
:0109AF002225
:100B04005389F0438901758A18758CFCC28DD28C87
:070B1400D2A9D2AFC2B92241
:0D0BA100120B717FCC1209E37F440209E3BF
:100A8C00120B717FCC1209E37FBE1209E3120A1319
:100A9C007508008F09120A13EFFEEE4208AE08AF7C
:010AAC000940
:010AAD002226
:100B7100C2B7120BCED2B7120BDA120BDF20B702BB
:040B8100C322D32296
:100AE90030000AC2B7120BE4D2B7020BDAC2B7124E
:0B0AF9000BDA120BE4D2B7120BE42260
:100B1B00C2B7120BE4D2B7120BE4A2B79200120BBE
:060B2B00E4120BDFA20042
:010B310022A1
:0209E3008F0A79
:1009E500120BD4120BD4E4F50B74017E00A80B088E
:1009F5008005C333CE33CED8F9FFEF550A24FF92D5
:0D0A050000120AE9050BE50BC3940840DC64
:010A120022C1
:100A1300E4F50A120BD4120BD4E4F50B120B1B50A2
:100A23000FAF0B7401A807088002C333D8FC420A36
:0B0A3300050BE50BC3940840E3AF0A7D
:010A3E002295
:050BCE00007FE3DFFEE3
:010BD30022FF
:050BD400007F34DFFE8C
:010BD90022F9
:040BDA007F19DFFEA2
:010BDE0022F4
:040BDF007F0BDFFEAB
:010BE30022EF
:040BE4007F02DFFEAF
:010BE80022EA
:03000000020BAE42
:0C0BAE00787FE4F6D8FD758129020894D8
:10080000BB010CE58229F582E5833AF583E02250AD
:1008100006E92582F8E622BBFE06E92582F8E222F7
:0D082000E58229F582E5833AF583E4932211
:10082D00EF8DF0A4A8F0CF8CF0A428CE8DF0A42EDF
:02083D00FE2299
:10083F00BC000BBE0029EF8DF084FFADF022E4CC9D
:10084F00F875F008EF2FFFEE33FEEC33FCEE9DEC66
:10085F00984005FCEE9DFE0FD5F0E9E4CEFD22EDAC
:10086F00F8F5F0EE8420D21CFEADF075F008EF2FF6
:10087F00FFED33FD4007985006D5F0F222C398FDE7
:05088F000FD5F0EA2284
:00000001FF
