:100ADC00120CB2120CC6120A7D8E368F37AC36ADA4
:100AEC0037E412090B7BF97A197997783C120800D4
:100AFC001209448E368F37D3E5379428E5369400A7
:100B0C00500CC2A0C2A1C2A2C2A3C2A4800AD2A08D
:100B1C00D2A1D2A2D2A3D2A4752003AB37AA367D20
:080B2C00017F01120C5380AEA1
:100C9D00EF1FAC0670011E4C600A7D017CF8DCFE76
:040CAD00DDFC80ECFE
:010CB1002220
:060CD600C2A58F80D2A729
:080CDC007F027EEFDEFEDFFC6B
:010CE40022ED
:0A0D0700C2A6120CD6C2A7020CDC33
:100C3500CFCDCFCECCCE120A047C007D0A120A0499
:040C4500ED2430FF6B
:0A0C4900D2A6120CD6C2A7020CDCE2
:100C8700AE07BE0104ED148006BE0209ED243F4401
:060C970080FF120D072290
:100CB2007F38120D077F0C120D077F06120D077F7A
:040CC20001020D0717
:0A0D1100AC03120C87AF04020C497A
:060C12008B3A8A3B893C8D
:100C1800120C87E4FDAB3AAA3BA93C8D8275830090
:0C0C28001209C5FF6006120C490D80E99E
:010C3400229D
:0C0BDF007F0AEA24FFFDE434FFFC7E00E6
:080BEB008E218F228C238D2442
:100BF3007F017E00E4FBEBC39524E5236480F87456
:0E0C03008098500AAC21AD221209F20B80E855
:010C110022C0
:040C53008A1E8B1F4B
:100C5700120C87AA20EAD39400400D120BDFAC1EBA
:080C6700AD1F120C351A80EDDF
:010C6F002262
:100B3400120C87C3EA64809480400B7F2B120C490B
:100B44008A2A8B2B800E7F2D120C49C3E49BF52B34
:100B5400E49AF52AAA29EAD39400400D120BDFACDB
:090B64002AAD2B120C351A80EDAC
:010B6D002265
:040B6E008A2E8B2F11
:100B7200120C87AA30EAD3940040297F10120BE1AD
:100B8200AC2EAD2FCFCDCFCECCCE120A04EF540F68
:100B9200FEC3940AEE5004243080022437FF120C64
:040BA200491A80D19B
:010BA600222C
:040BA7008A338B34CE
:100BAB00120C87AA35EAD394004028EA24FFFDE40F
:100BBB0034FFFC7F027E00120BEBAC33AD34CFCD98
:100BCB00CFCECCCE120A04EF54012430FF120C49C5
:030BDB001A80D2AB
:010BDE0022F4
:0B0CF100D288C289D2A8D2AFD2B822AC
:100CC60053890F438910E4F58DF58BC28FC28E22AE
:0B0CFC00AD07AC068C8DAF058F8B227E
:090D2500BF0103D28E22C28E220E
:100C7000AF8DEFFEAD8BEDFF7C007D5C120A047C36
:060C8000007D641209F280
:010C8600224B
:040D2E007F03DFFE62
:010D3200229E
:050D3300C290C29122F4
:0A0D1B00C290D290120D2EC2902259
:100A7D00900000120D33120D1B209117AF82AE8323
:100A8D00E4FCFD7B607AEAF9F8D3120A674004A30F
:100A9D000080E6E4FFFE120CFC7F01120D25E4F54B
:100AAD0083F582309117AF82AE83E4FCFD7B607AD3
:100ABD00EAF9F8D3120A674004A30080E6120C701D
:0E0ACD008E1C8F1DE4FFFE120CFCAE1CAF1D34
:010ADB0022F8
:10080000EC4D6011E8497017ED33EC3304600DE4F2
:10081000FCFFFEFD22E933E8330470F80209B01250
:10082000097B58046009E4CC248150062850090251
:1008300009BA2840030209B7C0E0EB4A7044B98006
:1008400006D0E0FB0209A6EF4E701CBD8008EBFF4E
:10085000EAFEE9FD80EBE98DF0A4FEE5F00208E98F
:10086000E9CDF9EAFEEBFFEF89F0A4FCE5F0CE89D3
:10087000F0A42EFFE435F0CD89F0A42DFEE435F090
:100880008067EF4E7005BD80D780C3EF8BF0A4ACBE
:10089000F0EE8BF0A42CFCE435F0F8EF8AF0A42CF9
:1008A000E5F038FCE433CB8DF0A42CFCE5F03BF80C
:1008B000EE8AF0A42CFCE5F038F8E433CF89F0A4FC
:1008C0002CFCE5F038CF3400CE89F0A42FFFE5F002
:1008D0003EFEE433C98DF0A42EFEE5F039CD8AF05A
:1008E000A42FFFE5F03EFEE43DFD33D0E0FB5007D2
:1008F0000BBB000F0209BAEC2CFCEF33FFEE33FE0A
:06090000ED33FD02099237
:1009060075F020800E75F010800575F0087D007E6C
:10091600007F003392D530D503120A59EC334010CC
:10092600EF33FFEE33FEED33FDEC33FCD5F0ED2275
:0E093600E5F0247EA2D513CC92E7CDCEFF22B1
:10094400EDD2E7CD33EC3392D524814006E4FFFEAB
:10095400FDFC22FCE4CFCECDCC24E0501174FF800A
:10096400EDC3CC13CCCD13CDCE13CECF13CF0470A7
:07097400F030D5DE020A5944
:10097B00E9D2E7C933E833F892D5EDD2E7CD33ECC2
:07098B0033FC5002B2D5223B
:10099200EC30E7100FBF000C0EBE00080DBD0004C6
:1009A2000BEB6014A2D5EB13FCED92E7FD2274FF72
:1009B200FCFDFEFF22E480F8A2D574FF13FC7D80CB
:0309C200E480EFDF
:03000000020CE50A
:0C0CE500787FE4F6D8FD75813C020ADC43
:1009C500BB010CE58229F582E5833AF583E02250E7
:1009D50006E92582F8E622BBFE06E92582F8E22231
:0D09E500E58229F582E5833AF583E493224B
:1009F200EF8DF0A4A8F0CF8CF0A428CE8DF0A42E19
:020A0200FE22D2
:100A0400BC000BBE0029EF8DF084FFADF022E4CCD6
:100A1400F875F008EF2FFFEE33FEEC33FCEE9DEC9F
:100A2400984005FCEE9DFE0FD5F0E9E4CEFD22EDE5
:100A3400F8F5F0EE8420D21CFEADF075F008EF2F2F
:100A4400FFED33FD4007985006D5F0F222C398FD20
:050A54000FD5F0EA22BD
:0E0A5900C3E49FFFE49EFEE49DFDE49CFC22AE
:100A6700EB9FF5F0EA9E42F0E99D42F0EC6480C806
:060A770064809845F022A6
:00000001FF
