:10080000120D51120E298F11E5116050B4010363CE
:1008100010FFE511B40207E4F50FF50EF512E5112E
:100820006403701EE50FFD7C007F01120AEAE50EED
:10083000FD7C007F02120AEAE512FD7C007F0312B4
:100840000AEAE511B404157F01120BE98F0F7F024C
:10085000120BE98F0E7F03120BE98F12E50F75F073
:100860000A84FD7C007F01120E45E50F75F00A84B5
:10087000E5F0FD7C007F02120E457D0B7C007F03BE
:10088000120E45E50E75F00A84FD7C007F04120E01
:1008900045E50E75F00A84E5F0FD7C007F05120E3B
:1008A000457D0B7C007F06120E45E51275F00A842B
:1008B000FD7C007F07120E45E51275F00A84E5F015
:0B08C000FD7C007F08120E45020803BB
:100CAC00E51060220512E512C394644019E4F512B4
:100CBC00050EE50E943C400EE4F50E050FE50F9481
:070CCC003C4003E4F50F2298
:03000B0002095F88
:10095F00C0E0C0F0C083C082C0D075D000C000C05E
:0D096F0001C002C003C004C005C006C007DF
:10097C00758A18758CFC0509E50970020508050BCC
:10098C00E50B7002050A050DE50D7002050CC3E5BB
:10099C00099414E5089400400975080075090012C3
:1009AC000D94C3E50B9402E50A94004009750A0006
:1009BC00750B00120C4FC3E50D940AE50C94004026
:0A09CC0009750C00750D00120CAC4B
:1009D600D007D006D005D004D003D002D001D00075
:0B09E600D0D0D082D083D0F0D0E0321F
:100DAA00EF1FAC0670011E4C600A7D017CF8DCFE68
:040DBA00DDFC80ECF0
:010DBE002212
:100D51005389F0438901758A18758CFCC28DD28C38
:070D6100D2A9D2AFC2B922F2
:090E3300D2A0D2A1C2A0C2A122EA
:090E3C00C2A1C2A0D2A1D2A022E1
:020C8100AD07BD
:100C8300C2A1E4FB74807E00A803088006CEA2E71D
:100C930013CE13D8F8FFEDF582EF558224FF92A00F
:080CA300D2A1C2A10BBB08DCC9
:010CAB002226
:100CF600E4FFC2A1D2A0FED2A130A00D7480A80646
:0F0D0600088002C313D8FC4207C2A10EBE08E842
:010D150022BB
:0A0E0B00EF24FF92A0D2A1C2A122A1
:0B0DF300E4D2A0D2A1A2A033FFC2A155
:010DFE0022D2
:060AEA008F248C258D26EF
:100AF000E4F528F529120E337FA0120C81120DF3B4
:100B0000AF24120C81120DF3AF26120C81120DF3DB
:100B1000120E3C120E337FA0120C81120DF38F27A0
:100B2000120E3C0529E529AE287002052814D3943D
:0D0B300010EE94274002D322E52770D7C3B2
:010B3D002295
:020BE9008F2457
:100BEB00752501120E337FA0120C81120DF3AF2469
:100BFB00120C81120DF3120E337FA1120C81120D08
:100C0B00F3120CF68F257F01120E0B120E3CAF2543
:010C1B0022B6
:060DE400C2A58F80D2A71A
:080DEA007F027EEFDEFEDFFC5C
:010DF20022DE
:0A0E1500C2A6120DE4C2A7020DEA06
:100D1600CFCDCFCECCCE12090A7C007D0A12090AAD
:040D2600ED2430FF89
:0A0D2A00D2A6120DE4C2A7020DEAE2
:100D6800AE07BE0104ED148006BE0209ED243F441F
:060D780080FF120E15229F
:100DBF007F38120E157F0C120E157F06120E157F3F
:040DCF0001020E15FA
:0A0E1F00AC03120D68AF04020D2AA7
:060CD3008B3D8A3E893FC3
:100CD900120D68E4FDAB3DAA3EA93F8D82758300E4
:0C0CE9001208CBFF6006120D2A0D80E9F6
:010CF50022DC
:0C0C1C007F0AEA24FFFDE434FFFC7E00A8
:080C28008E398F3A8C3B8D3CA4
:100C30007F017E00E4FBEBC3953CE53B6480F874E8
:0E0C40008098500AAC39AD3A1208F80B80E8E3
:010C4E002283
:040D34008A2C8B2D4D
:100D3800120D68AA2EEAD39400400D120C1CAC2C9C
:080D4800AD2D120D161A80ED0D
:010D50002280
:100B3E00120D68C3EA64809480400B7F2B120D2A3D
:100B4E008A228B23800E7F2D120D2AC3E49BF52360
:100B5E00E49AF522AA21EAD39400400D120C1CACA3
:090B6E0022AD23120D161A80EDD0
:010B7700225B
:040B78008A318B3201
:100B7C00120D68AA33EAD3940040297F10120C1E80
:100B8C00AC31AD32CFCDCFCECCCE12090AEF540F53
:100B9C00FEC3940AEE5004243080022437FF120D59
:040BAC002A1A80D1B0
:010BB0002222
:040BB1008A368B37BE
:100BB500120D68AA38EAD394004028EA24FFFDE420
:100BC50034FFFC7F027E00120C28AC36AD37CFCD4A
:100BD500CFCECCCE12090AEF54012430FF120D2AD4
:030BE5001A80D2A1
:010BE80022EA
:0C0DFF003F065B4F666D7D077F6F004074
:100DD30008150A0A0A0A0A0A0A0A0113000114007A
:100A7D00E4F580EF14B408005054900A9575F00316
:100A8D00A4C58325F0C58373020AAD020AB1020A1B
:100A9D00B9020ABD020AC5020AC9020AD1020AD563
:100AAD00D2A28002C2A2D2A3D2A48022D2A280025C
:100ABD00C2A2C2A3D2A48016D2A28002C2A2D2A385
:100ACD00C2A4800AD2A28002C2A2C2A3C2A474FF91
:0D0ADD002DF582740D3CF583E493F5802225
:100C4F0074152513F8E6FEB40A12E514C394085080
:100C5F000BE513045407F513051480E4E4F514E5CC
:100C6F001304FFEEFD7C00120A7DE513045407F513
:010C7F001361
:010C80002251
:090E4500AE0574142FF8A6062274
:100D7E00E4FF20B1010F20B0027F0220B2027F03F8
:050D8E0020B3027F0408
:010D9300223D
:100D9400854140120D7E8F41E54065416007E54184
:050DA4007003854042D0
:010DA9002227
:090E2900E5426005FFE4F54222F8
:010E3200229D
:030000000209F101
:0C09F100787FE4F6D8FD758142020A38D8
:1008CB00BB010CE58229F582E5833AF583E02250E2
:1008DB0006E92582F8E622BBFE06E92582F8E2222C
:0D08EB00E58229F582E5833AF583E4932246
:1008F800EF8DF0A4A8F0CF8CF0A428CE8DF0A42E14
:02090800FE22CD
:10090A00BC000BBE0029EF8DF084FFADF022E4CCD1
:10091A00F875F008EF2FFFEE33FEEC33FCEE9DEC9A
:10092A00984005FCEE9DFE0FD5F0E9E4CEFD22EDE0
:10093A00F8F5F0EE8420D21CFEADF075F008EF2F2A
:10094A00FFED33FD4007985006D5F0F222C398FD1B
:05095A000FD5F0EA22B8
:1009FD00020800E493A3F8E493A34003F68001F208
:100A0D0008DFF48029E493A3F85407240CC8C333FA
:100A1D00C4540F4420C8834004F456800146F6DFC9
:100A2D00E4800B0102040810204080900DD3E47E79
:100A3D00019360BCA3FF543F30E509541FFEE493BE
:100A4D00A360010ECF54C025E060A840B8E493A385
:100A5D00FAE493A3F8E493A3C8C582C8CAC583CAB0
:100A6D00F0A3C8C582C8CAC583CADFE9DEE780BE68
:010DE300000F
:00000001FF
