:090D1F00011007011217010C3745
:10080000120D39120E008F0FE50F6026B401070597
:100810000CE4F50DF50EE50FB40207150CE4F50D2B
:10082000F50EE50FB40303750C03E50FB40403756F
:100830000C04E50CC3943C4019E4F50C0512E512D8
:10084000943C400EE4F5120510E51094184003E4C2
:10085000F510E51075F00A84FD7C007F01120E1C76
:10086000E51075F00A84E5F0FD7C007F02120E1C95
:100870007D0B7C007F03120E1CE51275F00A84FDCF
:100880007C007F04120E1CE51275F00A84E5F0FD71
:100890007C007F05120E1C7D0B7C007F06120E1C57
:1008A000E50C75F00A84FD7C007F07120E1CE50C38
:1008B00075F00A84E5F0FD7C007F08120E1C02082A
:0108C0000334
:03000B0002095592
:10095500C0E0C0F0C083C082C0D075D000C000C068
:0D09650001C002C003C004C005C006C007E9
:10097200758A18758CFC0509E50970020508050BD6
:10098200E50B7002050A050EE50E7002050DC3E5C2
:10099200099414E5089400400975080075090012CD
:1009A2000D7CC3E50B9402E50A94004009750A0028
:1009B200750B00120BDBC3E50E94E8E50D940340C2
:0909C20008750D00750E00050C0E
:1009CB00D007D006D005D004D003D002D001D00080
:0B09DB00D0D0D082D083D0F0D0E0322A
:100D9200EF1FAC0670011E4C600A7D017CF8DCFE80
:040DA200DDFC80EC08
:010DA600222A
:100D39005389F0438901758A18758CFCC28DD28C50
:070D4900D2A9D2AFC2B9220A
:090E0A00D2A0D2A1C2A0C2A12213
:090E1300C2A1C2A0D2A1D2A0220A
:020C7600AD07C8
:100C7800C2A1E4FB74807E00A803088006CEA2E728
:100C880013CE13D8F8FFEDF582EF558224FF92A01A
:080C9800D2A1C2A10BBB08DCD4
:010CA0002231
:100CC400E4FFC2A1D2A0FED2A130A00D7480A80678
:0F0CD400088002C313D8FC4207C2A10EBE08E875
:010CE30022EE
:0A0DE200EF24FF92A0D2A1C2A122CB
:0B0DCA00E4D2A0D2A1A2A033FFC2A17E
:010DD50022FB
:060ADC008F248C258D26FD
:100AE200E4F528F529120E0A7FA0120C76120DCA1F
:100AF200AF24120C76120DCAAF26120C76120DCA52
:100B0200120E13120E0A7FA0120C76120DCA8F2734
:100B1200120E130529E529AE287002052814D39474
:0D0B220010EE94274002D322E52770D7C3C0
:010B2F0022A3
:020C10008F4310
:100C1200754401120E0A7FA0120C76120DCAAF4360
:100C2200120C76120DCA120E0A7FA1120C76120D48
:100C3200CA120CC48F447F01120DE2120E13AF448C
:010C4200228F
:060DBB00C2A58F80D2A743
:080DC1007F027EEFDEFEDFFC85
:010DC9002207
:0A0DEC00C2A6120DBBC2A7020DC182
:100CE400CFCDCFCECCCE1209007C007D0A120900F4
:040CF400ED2430FFBC
:0A0CF800D2A6120DBBC2A7020DC167
:100D5000AE07BE0104ED148006BE0209ED243F4437
:060D600080FF120DEC22E1
:100DA7007F38120DEC7F0C120DEC7F06120DEC7FD5
:040DB70001020DEC3C
:0A0DF600AC03120D50AF04020CF81C
:060CA1008B3D8A3E893FF5
:100CA700120D50E4FDAB3DAA3EA93F8D827583002E
:0C0CB7001208C1FF6006120CF80D80E965
:010CC300220E
:0C0C43007F0AEA24FFFDE434FFFC7E0081
:080C4F008E398F3A8C3B8D3C7D
:100C57007F017E00E4FBEBC3953CE53B6480F874C1
:0E0C67008098500AAC39AD3A1208EE0B80E8C6
:010C7500225C
:040D02008A2C8B2D7F
:100D0600120D50AA2EEAD39400400D120C43AC2CBF
:080D1600AD2D120CE41A80ED72
:010D1E0022B2
:100B3000120D50C3EA64809480400B7F2B120CF896
:100B40008A228B23800E7F2D120CF8C3E49BF523A1
:100B5000E49AF522AA21EAD39400400D120C43AC8A
:090B600022AD23120CE41A80ED11
:010B69002269
:040B6A008A318B320F
:100B6E00120D50AA33EAD3940040297F10120C457F
:100B7E00AC31AD32CFCDCFCECCCE120900EF540F6B
:100B8E00FEC3940AEE5004243080022437FF120C68
:040B9E00F81A80D1F0
:010BA2002230
:040BA3008A368B37CC
:100BA700120D50AA38EAD394004028EA24FFFDE446
:100BB70034FFFC7F027E00120C4FAC36AD37CFCD31
:100BC700CFCECCCE120900EF54012430FF120CF81F
:030BD7001A80D2AF
:010BDA0022F8
:0C0DD6003F065B4F666D7D077F6F00409D
:100D280008150A0A0A0A0A0A0A0A01130001140025
:100A7200EF14B408005054900A8775F003A4C5839C
:100A820025F0C58373020A9F020AA3020AAB020A77
:100A9200AF020AB7020ABB020AC3020AC7D2A28085
:100AA20002C2A2D2A3D2A48022D2A28002C2A2C235
:100AB200A3D2A48016D2A28002C2A2D2A3C2A480D0
:100AC2000AD2A28002C2A2C2A3C2A474D62DF58207
:0A0AD200740D3CF583E493F58022D7
:100BDB00E4F58074152513F8E6FEB40A12E514C388
:100BEB009408500BE513045407F513051480E4E443
:100BFB00F514E51304FFEEFD7C00120A72E51304F5
:040C0B005407F51382
:010C0F0022C2
:090E1C00AE0574142FF8A606229D
:100D6600E4FF20B1010F20B0027F0220B2027F0310
:050D760020B3027F0420
:010D7B002255
:100D7C00854140120D668F41E54065416007E541B4
:050D8C007003854042E8
:010D9100223F
:090E0000E5426005FFE4F5422221
:010E090022C6
:030000000209E60C
:0C09E600787FE4F6D8FD758144020A2DEC
:1008C100BB010CE58229F582E5833AF583E02250EC
:1008D10006E92582F8E622BBFE06E92582F8E22236
:0D08E100E58229F582E5833AF583E4932250
:1008EE00EF8DF0A4A8F0CF8CF0A428CE8DF0A42E1E
:0208FE00FE22D8
:10090000BC000BBE0029EF8DF084FFADF022E4CCDB
:10091000F875F008EF2FFFEE33FEEC33FCEE9DECA4
:10092000984005FCEE9DFE0FD5F0E9E4CEFD22EDEA
:10093000F8F5F0EE8420D21CFEADF075F008EF2F34
:10094000FFED33FD4007985006D5F0F222C398FD25
:050950000FD5F0EA22C2
:1009F200020800E493A3F8E493A34003F68001F213
:100A020008DFF48029E493A3F85407240CC8C33305
:100A1200C4540F4420C8834004F456800146F6DFD4
:100A2200E4800B0102040810204080900D1FE47E38
:100A3200019360BCA3FF543F30E509541FFEE493C9
:100A4200A360010ECF54C025E060A840B8E493A390
:100A5200FAE493A3F8E493A3C8C582C8CAC583CABB
:100A6200F0A3C8C582C8CAC583CADFE9DEE780BE73
:010D380000BA
:00000001FF
