:0F035A0001110001140001100001130001120035
:1001EE001203711203E01203E7E513600B7D0B7F20
:1001FE00011203D77D0B8014E51175F00A84FD7F83
:10020E00011203D7E51175F00A84ADF07F021203D7
:10021E00D7AF111202E3AF141200D11203BF8F1227
:10022E00E51260C5E514B4080AE4F513AF11120225
:0B023E00E380B675130175140880AE54
:03000300020249AD
:10024900C0E0C0F0C083C082C0D075D000C000C07B
:1002590001C002C003C004C005C006C007E514B44C
:10026900060A751300AF111202E3800675130175B2
:100279001406D007D006D005D004D003D002D0018F
:0D028900D000D0D0D082D083D0F0D0E032B1
:0300130002029650
:10029600C0E0C0F0C083C082C0D075D000C000C02E
:1002A60001C002C003C004C005C006C007E514B4FF
:1002B600070A751300AF111202E380067513017564
:1002C6001407D007D006D005D004D003D002D00141
:0D02D600D000D0D0D082D083D0F0D0E03264
:03000B00020016DA
:10001600C0E0C0F0C083C082C0D075D000C000C0B0
:0D00260001C002C003C004C005C006C00731
:10003300758A18758CFC0509E50970020508050B1E
:10004300E50B7002050A050DE50D7002050C050FA1
:10005300E50F7002050EC3E5099414E5089400400A
:1000630009750800750900120388C3E50B9402E5BE
:100073000A94004009750A00750B00120341C3E599
:100083000D940CE50C94034016750C00750D00E5FA
:100093001370020511E511C3941E4003751100C3CB
:1000A300E50F9422E50E94014009750E00750F00CB
:0300B3006310FFD8
:1000B600D007D006D005D004D003D002D001D0009E
:0B00C600D0D0D082D083D0F0D0E03248
:100371005389F0438901758A18758CFCC28DD28C22
:07038100D2A9D2AFC2B922DC
:10039E00EF1FAC0670011E4C600A7D017CF8DCFE7E
:0403AE00DDFC80EC06
:0103B2002228
:0B03B300E4FF20B4010F20B5027F0220
:0103BE00221C
:100388008516151203B38F16E51565166007E51671
:0503980070038515173C
:01039D00223D
:0B03BF00E4FFE5176005FFE4F51722DE
:0103CA002210
:0703E000D288D2A8D2AF229F
:0703E700D28AD2AAD2AF2294
:0C03CB00C0F9A4B0999282F88090FFBFA6
:0703690002190A0A01180045
:100324007580FFEF24FE600904700AD2A0C2A18088
:0D03340004C2A0D2A1ED9003CB93F580226E
:100341007580FFE51804FF74192518F8E6FD1203FE
:0803510024E518045401F5181D
:010359002281
:0903D700AE0574182FF8A60622E9
:1000D100EFB4090040030201619000E1F8282873A0
:1000E1000200FC02010202010E02011802012202B9
:1000F100013302013B020148020155C290D29180B5
:1001010008D290E51024FF9291D2928006D290D22B
:1001110091C292D2938038D290D291D292C29380DE
:100121002ED290D291D292D293E51024FF9294D202
:100131009522D290D291D2928006D290D291C2923F
:10014100D293D294C29522C290D291D292C293D22A
:1001510094D29522D290C291D292D293C294D29546
:01016100227B
:1002E300E513703CEFC394055004E4F51422EFC307
:1002F300940A500475140122EFC3940F500475142B
:100303000222EFC39414500475140322EFC394190B
:10031300500475140422EFC3941E5004751405226F
:0103230022B7
:0300000002016298
:0C016200787FE4F6D8FD75811A0201A92F
:10016E000201EEE493A3F8E493A34003F68001F2B8
:10017E0008DFF48029E493A3F85407240CC8C33392
:10018E00C4540F4420C8834004F456800146F6DF61
:10019E00E4800B010204081020408090035AE47E94
:1001AE00019360BCA3FF543F30E509541FFEE49356
:1001BE00A360010ECF54C025E060A840B8E493A31D
:1001CE00FAE493A3F8E493A3C8C582C8CAC583CA48
:1001DE00F0A3C8C582C8CAC583CADFE9DEE780BE00
:01037000008C
:00000001FF
